:020000040800F2
:1000000000000220CD2C0008452C0008472C0008D9
:10001000492C00084B2C00084D2C00080000000063
:100020000000000000000000000000004F2C00084D
:10003000512C000800000000532C0008552C00082B
:100040001D2D00081D2D00081D2D00081D2D000868
:100050001D2D00081D2D00081D2D00081D2D000858
:100060001D2D00081D2D00081D2D00081D2D000848
:100070001D2D00081D2D00081D2D00081D2D000838
:100080001D2D00081D2D00081D2D0008000000007A
:100090000000000000000000000000001D2D00080E
:1000A0001D2D00081D2D00081D2D00081D2D000808
:1000B0001D2D00081D2D00081D2D0008612C0008B5
:1000C000712C00081D2D00081D2D00081D2D000895
:1000D0001D2D00081D2D00081D2D0008000000002A
:1000E0001D2D00081D2D00081D2D0008000000001A
:1000F0000000000000000000000000001D2D0008AE
:10010000000000001D2D00081D2D00081D2D0008F9
:1001100000000000000000000000000000000000DF
:100120001D2D00081D2D00081D2D00081D2D000887
:100130001D2D00080000000000000000000000006D
:100140000000000000000000000000001D2D00085D
:100150001D2D00081D2D00081D2D00081D2D000857
:100160001D2D00081D2D00080000000000000000EB
:10017000000000000000000000000000000000007F
:10018000000000001D2D000800000000000000001D
:08019000992B00081D2D000849
:1001A00010B5054C237833B9044B13B10448AFF3B1
:1001B00000800123237010BD7400002000000000A7
:1001C0008C35000808B5034B1BB103490348AFF356
:1001D000008008BD00000000780000208C35000879
:1001E00053B94AB9002908BF00281CBF4FF0FF319E
:1001F0004FF0FF3000F072B9ADF1080C6DE904CE9C
:1002000000F006F8DDF804E0DDE9022304B07047F1
:100210002DE9F047089E04468846002B4BD18A42C0
:10022000154667D9B2FA82F24AB1C2F1200701FA43
:1002300002F320FA07F7954047EA030894404FEA93
:10024000154E230CB8FBFEF71FFA85FC0EFB178832
:1002500043EA084307FB0CF1994209D9EB1807F16F
:10026000FF3080F01B81994240F21881023F2B44FD
:100270005B1AA4B2B3FBFEF00EFB103344EA034456
:1002800000FB0CFCA44509D92C1900F1FF3380F0C8
:100290000781A44540F2048102382C4440EA07401B
:1002A000A4EB0C0400271EB1D4400023C6E9004390
:1002B0003946BDE8F0878B4209D9002E00F0EB806B
:1002C0000027C6E9000138463946BDE8F087B3FA91
:1002D00083F7002F47D18B4202D3824200F2FA808B
:1002E000841A61EB030301209846002EE0D0C6E992
:1002F0000048DDE702B9FFDEB2FA82F2002A40F0E0
:100300008F80491B4FEA154E1FFA85F80127B1FB74
:10031000FEFC230C0EFB1C1143EA014308FB0CF10D
:10032000994207D9EB180CF1FF3002D2994200F242
:10033000CD808446591AA3B2B1FBFEF00EFB101417
:1003400043EA044408FB00F8A04507D92C1900F142
:10035000FF3302D2A04500F2B6801846A4EB080491
:1003600040EA0C409FE7C7F1200CBB4022FA0CFE8C
:100370004EEA030E01FA07F420FA0CF521FA0CF309
:100380004FEA1E482543B3FBF8F92C0C08FB193340
:100390001FFA8EFA44EA034309FB0AF49C4202FA6C
:1003A00007F200FA07F10BD91EEB030309F1FF3046
:1003B00080F087809C4240F28480A9F10209734456
:1003C0001B1BADB2B3FBF8F008FB103345EA034446
:1003D00000FB0AFAA24508D91EEB040400F1FF3322
:1003E0006BD2A24569D90238744440EA0940A0FBA7
:1003F0000289A4EB0A044C45C2464B4654D351D063
:10040000002E69D0B1EB0A0564EB030404FA0CFC7E
:10041000FD40FC404CEA0505C6E90054002747E7CB
:10042000C2F1200320FA03F7954001FA02F021FA05
:1004300003F34FEA154E3843010CB3FBFEF71FFAE6
:1004400085F80EFB173341EA034107FB08F38B42A3
:1004500004FA02F407D9691807F1FF3C2FD28B4246
:100460002DD9023F2944CB1A81B2B3FBFEF00EFB1B
:10047000103341EA034100FB08F38B4207D96918A6
:1004800000F1FF3C17D28B4215D902382944C91A12
:1004900040EA07473BE73746304609E70746E7E6C5
:1004A0001846FBE64145ABD2B8EB020A69EB0E02F7
:1004B00001381346A4E76046E9E7184695E7674622
:1004C000D1E781467CE702382C4447E7ACF1020CC7
:1004D0002B442FE7384608E73746E9E6704700BF68
:1004E00001F0FF01102A2BDB10F0070F08D010F8E5
:1004F000013B013A8B422DD010F0070F42B3F6D1E9
:10050000F0B441EA012141EA014122F007047FF001
:1005100000070023F0E80256083C85EA010586EA58
:10052000010685FA47F5A3FA87F586FA47F6A5FA94
:1005300087F68EB9EED1F0BC01F0FF0102F00702A0
:1005400032B110F8013B013A83EA010313B1F8D14B
:100550000020704701387047002D06BF354603382C
:10056000073815F0010F07D1013015F4807F02BF65
:10057000013015F4C03F0130F0BC0138704700BFB6
:1005800010B504460E4B18784FF47A73B3FBF0F3B2
:100590000C4A1068B0FBF3F000F0D0F868B90F2CEB
:1005A00001D901200AE0002221464FF0FF3000F07F
:1005B00069F8034B5C60002000E0012010BD00BF23
:1005C000000000200C00002008B50B4B1A6842F414
:1005D00000721A601A6842F480621A601A6842F463
:1005E00080721A60032000F02FF80020FFF7C8FF88
:1005F00002F0DEFA002008BD003C0240034A116808
:10060000034B1B780B441360704700BFA802002007
:1006100000000020014B1868704700BFA8020020AE
:1006200038B50446FFF7F6FF0546B4F1FF3F02D0A8
:10063000044B1B781C44FFF7EDFF401BA042FAD38C
:1006400038BD00BF0000002010B50446C31E042BB7
:100650000FD80A4AD36823F4E0631B041B0C24025E
:1006600004F4E064234343F0BF6343F40033D360F6
:1006700010BDA221024802F00FFAEAE700ED00E007
:10068000E43D000870B505460C4616460F2A25D8ED
:100690000F2C28D81B4BDB68C3F30223C3F10702DE
:1006A000042A28BF0422191D062921D9033B4FF033
:1006B000FF3101FA02F224EA02049C4001FA03F33A
:1006C00026EA03063443002D14DB2401E4B205F1CD
:1006D000604505F5614585F8004370BDBA210A48BB
:1006E00002F0DAF9D4E7BB21074802F0D5F9D1E7E7
:1006F0000023DCE705F00F052401E4B2034B5C5551
:10070000EBE700BF00ED00E0E43D000814ED00E081
:1007100010B5041E08DB04F01F0264090123934096
:10072000044A42F8243010BDCE21034802F0B4F947
:10073000F1E700BF00E100E0E43D00080138B0F15E
:10074000807F0AD2064B5860064AF02182F82310B7
:100750000020986007221A6070470120704700BF90
:1007600010E000E000ED00E010B50446042800D0E1
:1007700038B9042C0BD0094A136823F00403136022
:1007800010BD40F2D911064802F086F9F1E7034A9C
:10079000136843F004031360F2E700BF10E000E0C9
:1007A000E43D0008704708B5FFF7FCFF08BD90F86E
:1007B0003530DBB2022B03D0802343650120704724
:1007C000052380F835300268136823F001031360B5
:1007D000002070472DE9F04782B080460E46A44BBA
:1007E000984217D003F58063984213D003F58063D5
:1007F00098420FD003F5806398420BD003F58063D5
:10080000984207D003F54063984203D0C32199482A
:1008100002F042F933689AB212B11B0C1B041BB1EF
:10082000C421944802F038F97368012B1ED9112BAA
:100830001CD0022B1AD0122B18D08F4A934215D0FD
:1008400002F58012934211D002F5801293420DD02E
:10085000A2F5F812934209D002F58012934205D016
:1008600002F58012934201D0032B04D1B368022B0E
:1008700006D8002445E0C5217E4802F00DF9F5E7D1
:10088000C6217C4802F008F9F3E7EA21794802F032
:1008900003F990E0042300E000238B40034302327D
:1008A000764941F82230764B1A68FB4303EA02018D
:1008B000706810F4803F01D047EA0201704A11606D
:1008C000526803EA0201706810F4003F01D047EA61
:1008D00002016B4A5160926803EA0201706810F4E9
:1008E000801F01D047EA0201654A9160D268134037
:1008F000716811F4001F01D047EA0203604AD36017
:1009000001340F2C00F2B0800125A54037682F403C
:10091000BD42F5D17368022B01D0122B2BD1336964
:10092000CBB1092B17D0012B15D0022B13D0042BE0
:1009300011D0052B0FD0062B0DD0072B0BD0082B79
:1009400009D00A2B07D00C2B05D00F2B03D0D721B1
:10095000484802F0A1F8E208083258F8220004F0F2
:10096000070399000F238B4020EA030033698B4073
:10097000034348F82230D8F800204FEA440A4FF0E9
:10098000030909FA0AF96FEA090909EA0202736818
:1009900003F0030303FA0AF31343C8F80030736843
:1009A0005A1E012A03D9112B01D0122B18D1F3683A
:1009B000032B3FF66AAFD8F8082009EA0202F36871
:1009C00003FA0AF31343C8F80830D8F8042022EADF
:1009D00005027368C3F30015A5401543C8F8045019
:1009E000D8F80C3009EA0309B36803FA0AF343EABA
:1009F0000903C8F80C30736813F0805F80D00023BF
:100A00000193204B5A6C42F480425A645B6C03F4AD
:100A100080430193019BA208911C184B53F82100BD
:100A200004F0030399000F238B4020EA0300104BCE
:100A300098453FF431AF03F5806398450ED003F538
:100A4000806398450CD003F5806398450AD003F580
:100A5000806398453FF41EAF07231EE701231CE780
:100A600002231AE7032318E702B0BDE8F08700BFAE
:100A700000000240203E0008000011100038014034
:100A8000003C01400038024090F83E30DBB2402B81
:100A900013D00369B3F5804F1ED0036D002B2DD00A
:100AA000036D012B33D1436CC3F3C813026803F009
:100AB000060343F0F103136129E0036D2BB9436C86
:100AC000026803F0FE03136121E0436C026843F007
:100AD0000103DBB213611AE090F83D30DBB2212B49
:100AE00006D0436C026843F00103DBB213610EE0F1
:100AF000436C026803F0FE03136108E0436CC3F328
:100B0000C813026803F0060343F0F00313610020EA
:100B10007047436C0268DBB213610020704710B469
:100B20008BB090F83E30DAB2C16A046B90F83D3079
:100B3000DBB2222B0CD00023099303685A69099277
:100B40009B690993099B00200BB05DF8044B70472B
:100B5000036D0BB9402A17D0036D1BB90369B3F5B8
:100B6000404F19D0438D9BB2002B25D102930368CF
:100B70005A6902929A690292029A1A6842F40072C1
:100B80001A6000230365DEE7009303685A69009248
:100B90009B690093009BD6E70023019303685A6981
:100BA00001929A690192019A1A6842F480721A605D
:100BB000036D01330365C6E7438D9BB2012B1AD049
:100BC000438D9BB2022B6BD00268136843F48063A1
:100BD000136003685A6812F4006F03D05A6842F435
:100BE00080525A600023089303685A6908929B69EF
:100BF0000893089BC5E711F5803F16D004293DD026
:100C000008293BD0122C39D0C36A022B30D002689D
:100C1000136823F4806313600023059303685A6903
:100C200005929B690593059BABE70268136823F463
:100C30008063136003685A6812F4006F0CD01A685E
:100C400022F480621A600023039303685A690392B6
:100C50009B690393039B94E7002204925A690492D0
:100C60009A690492049A1A6842F400721A6088E73A
:100C70000268136843F480631360CDE70268136869
:100C800023F4806313600023069303685A69069275
:100C90009A690692069A1A6842F400721A6070E71E
:100CA000C36A022B1BD00268136823F480631360AD
:100CB0000268136843F40063136003685A6812F40F
:100CC000006F03D05A6842F480525A6000230793A1
:100CD00003685A6907929B690793079B51E702686B
:100CE000136843F480631360E7E7438D9BB24BB115
:100CF000436A5A1C426202681B781361438D013BB0
:100D00009BB2438500207047438D9BB24BB1036873
:100D10001A69436A591C41621A70438D013B9BB2A8
:100D20004385002070470000002800F0EB8010B5DC
:100D300004460368744A93420CD002F580629342E1
:100D400008D002F58062934204D04FF4B7716F4827
:100D500001F0A2FE6368013B6D4A934267D8A36825
:100D600013B1B3F5804F68D1E36823F47F7323F0A8
:100D70000303002B67D12369B3F5804F02D0B3F58D
:100D8000404F66D16369012B69D8A36933F0FE0334
:100D90006BD1E3690BB1402B6DD1236A0BB1802B72
:100DA0006FD194F83D30002B71D0242384F83D306E
:100DB0002268136823F00103136001F061FA554BB8
:100DC000A3FB00239B0C226853606168524A914246
:100DD00063D801332268136263684F4A934266D82E
:100DE0005B00B0FBF3F0C0F30B03032B00D804202F
:100DF0002368D861E369216A22680B431360236981
:100E0000E16822680B4393606369A16922680B4320
:100E1000D3602268136843F001031360002020644C
:100E2000202384F83D30206384F83E0010BD40F25A
:100E30006F11364801F030FE91E74FF4B871334836
:100E400001F02AFE90E740F27111304801F024FED3
:100E500091E74FF4B9712D4801F01EFE92E740F280
:100E600073112A4801F018FE8FE74FF4BA71274832
:100E700001F012FE8DE740F27511244801F00CFEDE
:100E80008BE74FF4BB71214801F006FE89E784F837
:100E90003C30204601F0D2FC87E74FF4967202FB0B
:100EA00003F31E4AA2FB03239B09013392E7A168C7
:100EB00089B903EB4302B0FBF2F2C2F30B02B2FAC0
:100EC00082F25209E2B991B903EB4303B0FBF3F0AC
:100ED00040F400408CE703EB830202EB8202B0FB9C
:100EE000F2F2C2F30B02B2FA82F25209EAE703EB22
:100EF000830303EB8303B0FBF3F040F4404077E758
:100F0000012075E701207047005400405C3E000856
:100F10007F1A060083DE1B43A0860100D34D6210BA
:100F20002DE9F04182B00446884617461D46BDF8BB
:100F3000246000230193012D01D0102D4ED194F88F
:100F40003D30DBB2202B57D12E4B1B68DB082E4ADD
:100F5000A2FB03231B0A03EB830303EB830301932D
:100F6000019B5A1E0192002B3ED023689A6912F011
:100F7000020FF5D194F83C20012A41D0012284F8D7
:100F80003C201A6812F0010F03D11A6842F00102E6
:100F90001A602268136823F400631360212384F825
:100FA0003D30402384F83E3000202064089B63627B
:100FB00026856685154BE362C4F84480A764E56422
:100FC00020652268136843F48073136084F83C0042
:100FD0002268536843F4E06353600EE040F6D62184
:100FE0000B4801F059FDAAE72363202284F83D2035
:100FF00084F83C30032000E0022002B0BDE8F0811C
:101000000220FAE70C00002089B5F8140000FFFF69
:101010005C3E00082DE9F04182B004468846174640
:101020001D46BDF8246000230193012D01D0102D31
:1010300056D194F83D30DBB2202B5FD1334B1B6887
:10104000DB08334AA2FB03231B0A03EB830303EBF6
:1010500083030193019B5A1E0192002B46D0236803
:101060009A6912F0020FF5D194F83C20012A49D078
:10107000012284F83C201A6812F0010F03D11A688B
:1010800042F001021A602268136823F400631360BF
:10109000222384F83D30402384F83E30002323642B
:1010A000089A6262268566851A4AE262C4F844801C
:1010B000A764E564236521680A6842F480620A60D7
:1010C00021680A6842F480720A6084F83C30238DFB
:1010D000D3B12268536843F4E063536000200EE00C
:1010E00040F62B310C4801F0D7FCA2E72363202205
:1010F00084F83D2084F83C30032000E0022002B058
:10110000BDE8F0810220FAE70020F8E70C0000209B
:1011100089B5F8140000FFFF5C3E00087047704777
:10112000704708B590F83D30DAB2438D9BB273B189
:10113000436A591C416201681B780B61438D013B76
:101140009BB24385438D9BB20BB9292A01D0002065
:1011500008BD0268536823F480635360212303634E
:10116000282380F83D30FFF7DBFFF0E7704790F869
:101170003D30DAB2438D9BB2F3B110B50368196903
:10118000436A5C1C44621970438D013B9BB24385EA
:10119000438D9BB20BB92A2A01D0002010BD0268F2
:1011A000536823F48063536022230363282380F869
:1011B0003D30FFF7DBFFF0E700207047704708B5D0
:1011C00003689A6912F0040F09D000219B6913F09B
:1011D000800F06D0028BFFF7F1FF002008BD012130
:1011E000F4E78289F7E7704708B590F83D30DBB245
:1011F000C26A042A01D0082A01D1282B07D0212B4A
:101200001FD003686FF480625A61002008BD1A4B3A
:10121000C3620268536823F4E063536003686FF4A9
:1012200080625A610268136823F4806313600023AC
:101230000363202280F83D2080F83E30FFF7D3FF83
:10124000E3E70D4BC36221230363202380F83D3085
:10125000002380F83E300268536823F4E063536053
:1012600003686FF480625A610268136823F4806334
:101270001360FFF755FFC8E70000FFFF704710B588
:1012800090F83D30DBB290F83E20D2B2C46A018DB6
:1012900009B9212B05D0212B3CD0402A38D0002081
:1012A00010BD042C04D0082C02D014F5803F19D1B5
:1012B0000268536823F4E06353600268136843F4E0
:1012C0000073136000230363202380F83D3090F8FF
:1012D0003E30DBB2402B15D0002380F83E30FFF7C4
:1012E0001DFFDCE70268536823F4E06353601123B9
:1012F0000363002380F83E30202380F83D30FFF761
:101300000DFFCCE7002380F83E30FFF7B7FFC6E7BC
:10131000222BC4D1438D9BB27BB190F83E30DBB21F
:10132000402B10D0436A5A1C426202681B7813613A
:10133000438D013B9BB24385B1E70268536823F4B8
:1013400080635360ABE7036D9BB9C36C012B08D07E
:10135000836CC3F3072302681361036D01330365D4
:101360009DE7836C0268DBB21361036D0233036592
:1013700095E7036D012B17D0036D022B8FD190F8E9
:101380003D30DBB2222B17D090F83D30DBB2212B61
:1013900085D1436A5A1C426202681B781361438DEF
:1013A000013B9BB243857AE7836C0268DBB2136131
:1013B000036D0133036572E70268136843F48073B9
:1013C00013606CE708B5C26A90F83D30DBB2212BA0
:1013D00001D0002008BD438D9BB203BB042A04D07A
:1013E000082A02D012F5803F24D10268536823F402
:1013F000E06353600268136843F4007313600023D2
:101400000363202380F83D3090F83E30DBB2402B60
:1014100020D0002380F83E30FFF780FED9E7436AF2
:101420005A1C426202681B781361438D013B9BB2D8
:101430004385CEE70268536823F4E06353601123C9
:101440000363002380F83E30202380F83D30FFF70F
:1014500065FEBEE7002380F83E30FFF70FFFB8E7D8
:10146000704708B590F83D30DBB2222B01D0002048
:1014700008BD438D9BB2032B13D903681A69436AD5
:10148000591C41621A70438D013B9BB24385438DC9
:101490009BB2032BEBD10268536823F48063536043
:1014A000E5E7012BE3D80268136823F48063136037
:1014B0000268536823F4E063536003681A69436A5F
:1014C000591C41621A70438D013B9BB24385202316
:1014D00080F83D300023036390F83E30DBB2402BB0
:1014E00005D0002380F83E30FFF719FEBFE7002348
:1014F00080F83E30FFF7B4FFB9E708B5C26A438D04
:101500009BB2042B13D0438D9BB2032B1FD0438D72
:101510009BB2022B30D003681A69436A591C41629E
:101520001A70438D013B9BB24385002008BD0268C1
:10153000536823F48063536003681A69436A591C33
:1015400041621A70438D013B9BB24385EDE702680F
:10155000536823F4806353600268136823F4806344
:10156000136003681A69436A591C41621A70438DFB
:10157000013B9BB24385D8E7013A012A2DD9026885
:10158000136843F40073136003681A69436A591CB3
:1015900041621A70438D013B9BB2438503681A690F
:1015A000436A591C41621A70438D013B9BB24385CB
:1015B0000268536823F440735360202380F83D3061
:1015C0000023036390F83E30DBB2402B10D00023A1
:1015D00080F83E30FFF7A3FDA7E70268136823F405
:1015E000806313600268136843F480731360CBE771
:1015F000002380F83E30FFF733FF96E770477047CF
:1016000010B5044690F83D30293B012B37D990F8AE
:101610003D30DBB2602B07D003685B6813F4006FCA
:1016200002D1202380F83D300023236384F83E302C
:101630002268136823F40063136023685A6812F465
:10164000006F3FD05A6822F400625A60626B92F8D1
:101650003530DBB2012B18D03A4B1365606BFFF7C6
:10166000A6F800283FD02268136823F00103136016
:10167000202384F83D30606B036D984733E00023EE
:101680000363282380F83D30D2E7A36B2D4A1A6507
:10169000A06BFFF78CF830B323685A6912F0400F43
:1016A00004D01A69636A591C61621A70226813684F
:1016B00023F001031360202384F83D30A06B036DF9
:1016C000984710E094F83D20D2B2602A11D05A69B0
:1016D00012F0400F04D01A69636A591C61621A70D3
:1016E0002046FFF78BFF94F83D30DBB2282B17D054
:1016F00010BD202284F83D20002222645A6912F095
:10170000400F04D01A69636A591C61621A7022681A
:10171000136823F0010313602046FFF770FFE2E730
:10172000236C13F0040FE3D0074BE3620023236321
:10173000202284F83D2084F83E302046FFF753FDF8
:10174000D6E700BF891A00080000FFFF10B582B07D
:1017500090F83D30DBB201684A6822F4E0624A60EA
:1017600000220192026851690191116841F0010162
:101770001160019A01680A6822F480620A600168B7
:101780004A6812F4006F14D090F83D20D2B2222A99
:101790000AD090F83D20D2B22A2A05D0426B1268B6
:1017A000526892B2428504E0826B1268526892B22B
:1017B0004285428D92B2F2B14A6912F0040F08D00C
:1017C0000969426A541C44621170428D013A92B216
:1017D00042850268516911F0400F08D01169426AD0
:1017E000541C44621170428D013A92B24285026CDF
:1017F00042F004020264026CA2B9282B15D02A2BF5
:1018000013D0292B11D0026B222A01D0222B17D101
:1018100000230363202280F83D2080F83E30FFF74C
:10182000A5FC0DE0FFF7ECFE0AE0074BC3620023C6
:101830000363202280F83D2080F83E30FFF7D3FC80
:10184000002002B010BD00BF0000FFFFF8B5054644
:1018500003689F695C695E6890F83E30DBB2102BCC
:1018600025D0402B23D04C4B234013B116F4007FDE
:101870006ED14A4B234013B116F4007F6BD1484B15
:101880003B40002B6FD0474B234033B116F4806FA1
:1018900003D0454B2340002B61D0434B234053B32F
:1018A00016F4007F27D02846FFF71FFA23E014F034
:1018B000011F02D016F4007F1ED13C4B234013B110
:1018C00016F4007F1CD1344B234013B116F4007F73
:1018D0001AD1334B3B401BB3324B23402BB116F490
:1018E000806F02D0304B234093B12F4B234013B174
:1018F00016F4007F10D1F8BD2846FFF7C5F8E8E7D9
:101900002846FFF706F9E4E72846FFF708F9E0E77D
:101910002846FFF7B4FCEEE72846FFF753FDEAE759
:10192000234B23402BB116F4806F02D01E4B234073
:1019300053B11D4B2340002BDDD016F4007FDAD0CD
:101940002846FFF7DAFDD6E72846FFF78AFDD2E7FB
:10195000FFF735FCCFE72846FFF7F8FECBE7284630
:10196000FFF7DFFBC7E7124B23402BB116F4806F64
:1019700002D00D4B234053B10B4B2340002BBAD068
:1019800016F4007FB7D02846FFF7BEF9B3E7284624
:10199000FFF7EDFBAFE700BF020001001000010000
:1019A0000400100080000100040001000800010094
:1019B0004000010070B5044603685D695E68314A05
:1019C000154209D016F4807F06D0026C42F0010265
:1019D00002646FF480725A6115F4813F0AD016F4E4
:1019E000807F07D0236C43F00203236423686FF4E5
:1019F00000725A6115F4823F1AD016F4807F17D016
:101A000094F83E30DBB2628D91B294F83D20D2B2B0
:101A1000206B202B1DD0236C43F00403236494F827
:101A20003E30DBB2102B22D023686FF480625A6103
:101A300015F4843F0AD016F4807F07D0236C43F05E
:101A40000803236423686FF400625A61236CA3B90E
:101A500070BD0029DFD1212A05D0292A03D0282AE8
:101A6000D9D12128D7D12046FFF7BEFBE0E7226875
:101A7000136843F400731360D6E72046FFF7C0FDF8
:101A8000E6E700BF0001010008B5806B026813683B
:101A900023F48063136000234385426B1365826BDC
:101AA000136590F83D30DBB2602B0DD0202380F819
:101AB0003D30002380F83E300268136823F00103B4
:101AC0001360FFF79BFD08BD202380F83D30002305
:101AD00080F83E3003640268136823F0010313604A
:101AE000FFF78DFDEFE70000002800F03B8270B5A6
:101AF00082B0044603680F2B39D8236813F0010F16
:101B00004DD063682BB1B3F5803F02D0B3F5A02F61
:101B100032D1A54B9B6803F00C03042B36D0A24BAB
:101B20009B6803F00C03082B2BD06368B3F5803F50
:101B30005FD0B3F5A02F62D09B4B1A6822F480329D
:101B40001A601A6822F480221A606368002B60D041
:101B5000FEF760FD0546944B1B6813F4003F1ED151
:101B6000FEF758FD401B6428F5D90320FFE1F8215A
:101B70008E4800F091FFC0E7FD218C4800F08CFFFB
:101B8000C7E7894B5B6813F4800FCED0864B1B6888
:101B900013F4003F03D06368002B00F0E581236855
:101BA00013F0020F67D0E368012B41D823691F2B84
:101BB00044D87D4B9B6813F00C0F4AD07A4B9B683E
:101BC00003F00C03082B3FD0E368002B77D0784B51
:101BD00001221A60FEF71EFD0546734B1B6813F0C9
:101BE000020F63D1FEF716FD401B0228F5D9032032
:101BF000BDE16D4A136843F480331360A5E76A4B77
:101C00001A6842F480221A601A6842F480321A601C
:101C10009BE7FEF7FFFC0546634B1B6813F4003F90
:101C2000BDD0FEF7F7FC401B6428F5D903209EE1E8
:101C300040F22F115D4800F02FFFB7E74FF4987185
:101C40005A4800F029FFB4E7574B5B6813F4800F44
:101C5000BAD1554B1B6813F0020F04D0E368012B77
:101C600001D0012083E1504A136823F0F803216971
:101C700043EAC1031360236813F0080F49D0636976
:101C8000012B2ED8636993B34A4B01221A60FEF7E9
:101C9000C1FC0546444B5B6F13F0020F39D1FEF7D0
:101CA000B9FC401B0228F5D9032060E13E4A1368C5
:101CB00023F0F803216943EAC1031360DBE73C4BDF
:101CC00000221A60FEF7A6FC0546374B1B6813F08E
:101CD000020FD0D0FEF79EFC401B0228F5D903204E
:101CE00045E14FF4B871314800F0D6FECAE7314BF8
:101CF00000221A60FEF78EFC05462B4B5B6F13F03B
:101D0000020F06D0FEF786FC401B0228F5D90320FF
:101D10002DE1236813F0040F00F08780A368012BE6
:101D200001D9052B38D1204B1B6C13F0805F39D1C2
:101D3000002301931C4B1A6C42F080521A641B6CF6
:101D400003F080530193019B01251B4B1B6813F487
:101D5000807F33D0A368012B44D0052B48D0124B91
:101D60001A6F22F001021A671A6F22F004021A6732
:101D7000A368002B46D0FEF74DFC06460A4B1B6FAE
:101D800013F0020F4FD1FEF745FC801B41F2883360
:101D90009842F3D90320EAE04FF4CE71034800F0F3
:101DA0007BFEC0E70025D0E700380240943E0008E3
:101DB00000004742800E4742007000406E4A1368A0
:101DC00043F480731360FEF725FC06466A4B1B68DC
:101DD00013F4807FBED1FEF71DFC801B0228F5D9CD
:101DE0000320C4E0654A136F43F001031367BFE7A4
:101DF000624B1A6F42F004021A671A6F42F0010236
:101E00001A67B5E7FEF706FC06465C4B1B6F13F03E
:101E1000020F08D0FEF7FEFB801B41F28833984288
:101E2000F3D90320A3E0002D3AD1A369022B3DD8BA
:101E3000A369002B00F09A80504A926802F00C02CD
:101E4000082A00F09680022B78D1E36913B1B3F52C
:101E5000800F31D1236A3F2B34D8636AC03BF02B0B
:101E600036D8A36A022B05D0042B03D0062B01D051
:101E7000082B33D1E36A023B0D2B35D8404B0022AF
:101E80001A60FEF7C7FB05463C4B1B6813F0007F4A
:101E900030D0FEF7BFFB401B0228F5D9032066E0D7
:101EA000364A136C23F080531364BEE740F2DF110F
:101EB000344800F0F1FDBBE74FF4F471314800F015
:101EC000EBFDC7E740F2E9112E4800F0E5FDC4E75D
:101ED0004FF4F5712B4800F0DFFDC2E740F2EB1143
:101EE000284800F0D9FDC5E74FF4F671254800F009
:101EF000D3FDC3E7E369226A1343626A43EA8213AC
:101F0000A26A5208013A43EA0243E26A43EA0263E0
:101F10001A4A53601A4B01221A60FEF77BFB0446F3
:101F2000164B1B6813F0007F06D1FEF773FB001BF6
:101F30000228F5D903201AE0002018E0104B0022F7
:101F40001A60FEF767FB04460C4B1B6813F0007F1A
:101F500006D0FEF75FFB001B0228F5D9032006E040
:101F6000002004E001207047012000E0002002B0C2
:101F700070BD0120FBE700BF007000400038024048
:101F800060004742943E0008324B9B6803F00C030C
:101F9000042B5CD0082B01D02F4870472DE9F04B63
:101FA0002C4B5A6802F03F025B6813F4800F2BD071
:101FB000284B5B68C3F388131E4600275C0100258D
:101FC000E41A65EB0705A90141EA9461A001001B31
:101FD00061EB0501CB0043EA5073C400A01943EB49
:101FE00007014B0243EAD05344022046194600231E
:101FF000FEF7F6F8174B5B68C3F3014301335B0050
:10200000B0FBF3F0BDE8F08B124B5B68C3F38813B1
:102010001E4600275C010025E41A65EB0705A901AF
:1020200041EA9461A001001B61EB0501CB0043EA8A
:102030005073C400A01943EB07018B0243EA90538D
:102040008402204619460023FEF7CAF8D2E7034867
:10205000704700BF003802400024F40000127A00EC
:10206000002800F0F98070B504460D460368013B76
:102070000E2B11D8072D15D8794B1B6803F00F03D1
:10208000AB4215D2EBB2764A1370136803F00F031C
:10209000AB420DD0012070BD4FF41471714800F0B7
:1020A000FBFCE7E740F251216E4800F0F5FCE3E766
:1020B000236813F0020F29D013F0040F04D06A4AEA
:1020C000936843F4E0539360236813F0080F04D03F
:1020D000654A936843F460439360A3687BB1802BA7
:1020E0000DD0902B0BD0A02B09D0B02B07D0C02B3C
:1020F00005D0D02B03D0E02B01D0F02B33D15A4A9E
:10210000936823F0F003A1680B439360236813F0F6
:10211000010F42D06368032B2BD86368012B2ED0AC
:102120009A1E012A32D9504A126812F0020F00F0AA
:1021300095804D498A6822F0030213438B60FEF7B5
:1021400069FA0646484B9B6803F00C036268B3EBE0
:10215000820F22D0FEF75EFA801B41F2883398424C
:10216000F0D9032097E74FF41D713E4800F094FC2E
:10217000C5E740F27B213B4800F08EFCCDE73A4AB0
:10218000126812F4003FD4D1012084E7364A126865
:1021900012F0007FCDD101207DE7314B1B6803F0A9
:1021A0000F03AB4209D9EAB22D4B1A701B6803F03A
:1021B0000F03AB4201D001206DE7236813F0040F39
:1021C00014D0E3685BB1B3F5805F08D0B3F5A05FCE
:1021D00005D0B3F5C05F02D0B3F5E05F30D1224A3D
:1021E000936823F4E053E1680B439360236813F092
:1021F000080F15D023695BB1B3F5805F08D0B3F544
:10220000A05F05D0B3F5C05F02D0B3F5E05F1DD18C
:10221000154A936823F46043216943EAC10393603C
:10222000FFF7B2FE104B9B68C3F303130F4AD35C56
:10223000D8400F4B18600020FEF7A2F900202AE7D3
:1022400040F2B921074800F027FCC8E74FF430718D
:10225000044800F021FCDBE70120704701201AE769
:10226000003C0240943E000800380240CC3D00088B
:102270000C000020014B1868704700BF0C000020C4
:1022800008B5FFF7F7FF044B9B68C3F38223034AAB
:10229000D35CD84008BD00BF00380240DC3D0008D8
:1022A000052871D853296FD810B582B040F040038B
:1022B000DCB2364B1A78D2B25B78013B9A42F5D049
:1022C00000238DF804308DF80540EFF3108072B6CE
:1022D0002E4B1A78D2B2541CE4B21C7003EB4203AA
:1022E000BDF804209A8000B962B661F07F03D8B2CD
:1022F000264B1A78D2B25B78013B9A42F5D0002384
:102300008DF804308DF80500EFF3108172B61F4B85
:102310001A78D2B2501CC0B2187003EB4203BDF859
:1023200004209A8001B962B600F012FCE8B1174BA4
:102330005A780132D2B25A70154A4FF00061916159
:102340005A78013A03EB42031B7983B903F18043C6
:1023500003F504334FF000529A610C4B5A78013A5E
:1023600003EB4203587900F0FBFB02B010BD074BB2
:102370005A78013A03EB42031B79012BEDD1044B50
:102380004FF400529A61E8E7704700BF90000020C8
:102390000010024010B582B000210846FFF780FF10
:1023A00000244EE0294B5A78013A03EB42031B7993
:1023B000012B2AD0254B5A78013A03EB4203587976
:1023C00000F0CEFB214B1A78D2B25B78013B9A42E7
:1023D00020D100F0BDFB0028F4D01C4B5A7801320C
:1023E000D2B25A701A4A4FF0006191615A78013A9C
:1023F00003EB42031B79002BD4D103F1804303F597
:1024000004334FF000529A61D4E7114B4FF400525D
:102410009A61CFE701238DF8043000238DF8053051
:10242000EFF3108172B6094B1A78D2B2501CC0B2C9
:10243000187003EB4203BDF804209A8001B962B61C
:102440000134B4F5FC7FBDDB02B010BD900000206C
:102450000010024070B588B0002601967B4B1A6BC5
:1024600042F010021A631B6B03F010030193019BEF
:1024700003AC774D0FCD0FC42B682360754C03A9B7
:102480002046FEF7A7F9744B1968744BA3FB013182
:10249000090D012000F002FB4FF08063A36102965A
:1024A00002E0029B01330293029B632BF9DD694B2F
:1024B0004FF480629A616A4B00221A705A7000F0E1
:1024C0005FFB0028FBD1664B1A78D2B25B78013BE8
:1024D0009A4215D000238DF8003021238DF8013069
:1024E000EFF3108172B65E4B1A78D2B2501CC0B2B4
:1024F000187003EB4203BDF800209A8001B962B660
:10250000574B1A78D2B25B78013B9A4215D0002320
:102510008DF8003014238DF80130EFF3108172B67E
:102520004F4B1A78D2B2501CC0B2187003EB420362
:10253000BDF800209A8001B962B6494B1A78D2B230
:102540005B78013B9A4215D000238DF80030BF2301
:102550008DF80130EFF3108172B6414B1A78D2B288
:10256000501CC0B2187003EB4203BDF800209A80E3
:1025700001B962B63A4B1A78D2B25B78013B9A4203
:1025800015D000238DF8003020238DF80130EFF3B3
:10259000108172B6324B1A78D2B2501CC0B2187089
:1025A00003EB4203BDF800209A8001B962B62C4BC0
:1025B0001A78D2B25B78013B9A4215D000238DF88D
:1025C00000300C238DF80130EFF3108172B6244BEC
:1025D0001A78D2B2501CC0B2187003EB4203BDF897
:1025E00000209A8001B962B600F0B2FAE8B11C4B43
:1025F0005A780132D2B25A70164A4FF00061916196
:102600005A78013A03EB42031B7993B903F18043F3
:1026100003F504334FF000529A61114B5A78013A96
:1026200003EB4203587900F09BFAFFF7B3FE08B0C2
:1026300070BD0B4B5A78013A03EB42031B79012B17
:10264000EBD1044B4FF400529A61E6E700380240A8
:10265000A4350008001002400C00002083DE1B435C
:102660009000002030B583B0002100E00131044625
:102670002C4B13F830508D4222DD2A4B03EBC40360
:102680000B445D78284B1A78D2B25B78013B9A42B2
:10269000F3D001238DF804308DF80550EFF310844A
:1026A00072B6214B1A78D2B2551CEDB21D7003EBF5
:1026B0004203BDF804209A80002CD7D162B6D5E73A
:1026C00000F046FAE8B1184B5A780132D2B25A708B
:1026D000164A4FF0006191615A78013A03EB4203C8
:1026E0001B798BB903F1804303F504334FF000529B
:1026F0009A610D4B5A78013A03EB4203587900F086
:102700002FFA284603B030BD074B5A78013A03EB45
:1027100042031B79012BECD1044B4FF400529A6118
:10272000E7E700BFB8350008900000200010024025
:1027300008B5264B5A78013A03EB42031B79012B6B
:102740001DD0A3B1022B22D0204B5A78D2B21B78D5
:10275000DBB29A4227D01D4B5A78D2B2511CC9B273
:10276000597003EB4203587900F0FAF908BD184B91
:102770004FF000629A614FF000529A61E4E7144B07
:102780004FF000629A614FF400529A61DCE70F4B00
:102790005A78D2B21B78DBB29A42D5D10C4B4FF4A7
:1027A00000629A61E2E7094A1378DBB2591CC9B2A8
:1027B000117002EB430300209880022119711378F5
:1027C000DBB2537000F0CCF9D0E700BF90000020DE
:1027D0000010024082B000230193064B1A6B42F0B6
:1027E00002021A631B6B03F002030193019B02B008
:1027F000704700BF0038024008B50C480C4B03601E
:102800000C4B436000238360C3604FF4804202613D
:1028100043618361C3610362FEF786FA00B908BDB4
:102820004221054800F046F8F9E700BFAC0200205D
:1028300000540040A0860100CC3E000802681A4BFC
:102840009A4200D0704710B586B04FF410730193D0
:102850001223029301230393032304930423059378
:102860000DEB03011148FDF7B5FF00240094104B58
:102870001A6C42F400121A641B6C03F400130093E8
:10288000009B224602211F20FDF7FCFE1F20FDF7C2
:102890003FFF224602212020FDF7F4FE2020FDF715
:1028A00037FF06B010BD00BF0054004000040240D6
:1028B00000380240FEE7000000B595B0002201920A
:1028C000284B196C41F0805119641B6C03F0805344
:1028D0000193019B0292244B196841F44041196015
:1028E0001B6803F440430293029B022308930121D7
:1028F0000B9110210C910E930F92082210926421DB
:1029000011911293139208A8FFF7EEF810BB0F2352
:10291000039302230493002305934FF480520692FD
:102920000793032103A8FFF79BFBB8B9FFF7A2FCAD
:102930000E4BA3FB00308009FDF700FF0420FDF7DC
:1029400013FF002211464FF0FF30FDF79BFE15B03C
:102950005DF804FBAE210648FFF7ACFFBC2104483C
:10296000FFF7A8FF0038024000700040D34D62100E
:10297000DC3E000870B59CB0FDF726FEFFF79CFF1B
:10298000FFF728FFFFF738FFFFF764FD3E4E0124F5
:1029900001943E4D00952346202232213046FEF719
:1029A000BFFA4FF47A70FDF73BFE01942544009581
:1029B0002346232232213046FEF7B2FA4FF47A70D2
:1029C000FDF72EFE40E0FFF74DFE01341CAB234423
:1029D00013F8640C0028F6D100210120FFF760FCF9
:1029E0002B4BD9789A7842EA012242F30B122949FB
:1029F00003A800F0B9F9002402E0FFF733FE013428
:102A00001CAB234413F8640C0028F6D100210220EB
:102A1000FFF746FC1E4B59791A7942EA012242F32C
:102A20000B121C4903A800F09FF9002402E0FFF7F5
:102A300019FE01341CAB234413F8640C0028F6D1B2
:102A40004FF47A70FDF7ECFDFFF7A4FC0623019329
:102A50000F4C00940123A82232210B48FEF7DAFA2A
:102A60004FF47A70FDF7DCFD00210846FFF718FCF3
:102A70006378227842EA032242F30B12054903A845
:102A800000F072F90024A1E7AC0200200800002049
:102A900094020020EC3E00087047000030B589B079
:102AA000002302E001339BB24910022901DD062B0D
:102AB000F8D900240194214A516C41F40051516429
:102AC000516C01F40051019101990294116B41F094
:102AD00010011163126B02F010020292029A18495F
:102AE0000A6822F040020A60022822D014490A68CB
:102AF00022F400620A6012490A6822F0380242EAAF
:102B0000C30343F451730B600E4B4FF480129A6071
:102B1000002201215420FDF7B5FD03AC0A4D0FCD75
:102B20000FC42B68236003A90848FDF753FE09B0C2
:102B300030BD0A6842F400620A60DCE700380240F7
:102B40000034014000E100E0B83D00080010024000
:102B5000024B9868C0F34000704700BF003401404A
:102B600010B50446FFF7F4FF014628B1034BDC60C3
:102B70005A6842F080025A60084610BD0034014095
:102B8000044B9B6803F08203022B01D001207047A5
:102B9000002070470034014008B5044A536823F010
:102BA00080035360FFF7C4FD08BD00BF003401403F
:102BB00010B582B000240094214B5A6C42F480423C
:102BC0005A645A6C02F480420092009A01941A6C82
:102BD00042F080521A641B6C03F080530193019BF6
:102BE0000320FDF731FD224621466FF00B00FDF773
:102BF00049FD224621466FF00A00FDF743FD2246BB
:102C000021466FF00900FDF73DFD224621466FF099
:102C10000400FDF737FD224621466FF00300FDF763
:102C200031FD224621466FF00100FDF72BFD2246C3
:102C300021464FF0FF30FDF725FD02B010BD00BF6B
:102C4000003802407047FEE7FEE7FEE7FEE7704708
:102C50007047704708B5FDF7D1FCFDF7A4FD08BD2E
:102C600008B50248FEF7F2FD08BD00BFAC02002027
:102C700008B50248FEF79EFE08BD00BFAC0200206A
:102C80000F49D1F8883043F47003C1F888300D4BF8
:102C90001A6842F001021A60002098601A6822F057
:102CA000847222F480321A60074A5A601A6822F449
:102CB00080221A60D8604FF000638B60704700BFBD
:102CC00000ED00E00038024010300024DFF834D07E
:102CD000002103E00C4B5B58435004310B480C4B74
:102CE00042189A42F6D30B4A02E0002342F8043B12
:102CF000094B9A42F9D3FFF7C3FF00F011F8FFF731
:102D000039FE704700000220343F00080000002018
:102D1000740000207400002004030020FEE700007F
:102D200070B50D4E0D4CA41BA4100025A54209D171
:102D30000B4E0C4C00F02AFCA41BA4100025A5424D
:102D400005D170BD56F8253098470135EEE756F8A5
:102D5000253098470135F2E72C3F00082C3F00084A
:102D60002C3F0008303F00080EB400B59CB01DABEE
:102D7000029006906FF000410948079104910949BB
:102D800053F8042B05910068019302A900F066F83E
:102D9000029B00221A701CB05DF804EB03B0704770
:102DA000100000200802FFFF2DE9F0478E689E42C8
:102DB00082460C469046994637D88A8912F4906F1D
:102DC00031D0256809696F1A6569022305EB45054D
:102DD00095FBF3F509F101033B449D4238BF1D46C5
:102DE000530530D5294600F029FB064650B90C237F
:102DF000CAF80030A38943F04003A3814FF0FF30AD
:102E0000BDE8F0873A46216900F0A6FAA38923F4C9
:102E1000906343F08003A381266165613E44ED1B0E
:102E20002660A5604E464E4500D94E463246414684
:102E3000206800F09CFAA3689B1BA36023681E44D3
:102E400026600020DCE72A4600F052FB06460028F8
:102E5000E2D12169504600F0A3FAC8E72DE9F04F0E
:102E60009DB0804603938B891D060C4616460FD5F0
:102E70000B696BB9402100F0E1FA2060206128B9AC
:102E80000C23C8F800304FF0FF30C7E040236361E7
:102E90000023099320238DF8293030238DF82A3020
:102EA0004FF0010B37463D4615F8013B0BB1252B82
:102EB0003ED1B7EB060A0BD0534632462146404678
:102EC000FFF772FF013000F0A480099B534409937F
:102ED0003B78002B00F09D8000234FF0FF32CDE9BE
:102EE0000523049307938DF853301A932F46052238
:102EF00017F8011B4F48FDF7F3FA049BD0B9D90628
:102F000044BF20228DF853201A0744BF2B228DF88E
:102F100053202A782A2A15D0079A2F4600200A25FE
:102F2000394611F8013B303B092B4DD9B8B10FE0C0
:102F30002F46B8E73F4A801A0BFA00F01843049076
:102F40003D46D3E7039A111D12680391002A01DB65
:102F5000079204E0524243F00203079204933B7845
:102F60002E2B0CD17B782A2B33D1039B1A1D1B6887
:102F70000392002BB8BF4FF0FF33023705932E4D5D
:102F8000397803222846FDF7ABFA38B14023401BBD
:102F900003FA00F0049B0343013704933978274870
:102FA0008DF8281006227E1CFDF79AFA002838D0EA
:102FB000234B13BB039B073323F00703083303930F
:102FC000099B4B4409936DE705FB023201200F4634
:102FD000A6E700230137059319460A25384610F85D
:102FE000012B303A092A03D9002BC8D00591C6E736
:102FF00005FB012101230746F0E703AB00932246BE
:10300000104B04A94046AFF30080B0F1FF3F81466A
:10301000D6D1A3895B063FF536AF09981DB0BDE850
:10302000F08F03AB00932246064B04A9404600F004
:1030300081F8EAE7F03E0008F63E0008FA3E000894
:1030400000000000A92D00082DE9F04791461F4619
:103050008A680B69DDF820809342B8BF1346C9F82F
:10306000003091F8432006460C4612B10133C9F8EE
:1030700000302368990642BFD9F800300233C9F8FE
:103080000030256815F0060507D104F1190AE36838
:10309000D9F800209B1AAB4228DC94F84330226810
:1030A000003318BF012392062DD404F143023946A0
:1030B0003046C047013020D02368E568D9F80020A9
:1030C00003F00603042B08BFAD1AA36822690CBFE6
:1030D00025EAE57500259342C4BF9B1AED184FF011
:1030E00000091A344D451AD1002008E00123524648
:1030F00039463046C047013003D14FF0FF30BDE8BC
:10310000F0870135C3E7E1185A1C302081F84300ED
:10311000224494F8451082F843100233C5E7012396
:10312000224639463046C0470130E6D009F1010950
:10313000D8E700002DE9F04301F1430C0C46097E6D
:1031400085B06E291746064698460C9A00F0B38063
:1031500022D8632936D00AD8002900F0B98058292E
:1031600000F0838004F1420584F8421032E06429C3
:1031700001D06929F6D120681368050603F104011E
:103180002AD51B681160002B03DA2D225B4284F8DC
:1031900043206F480A2239E0732900F09D8008D847
:1031A0006F2920D07029DDD1236843F020032360EC
:1031B00003E0752917D07829D4D1782384F84530D5
:1031C000644855E01368191D1B68116004F142053D
:1031D00084F8423001238CE01B68116010F0400F2E
:1031E00018BF1BB2CFE713682568181D10602806AA
:1031F00001D51B6802E06806FBD51B8854486F297F
:1032000014BF0A220822002184F843106568A560D3
:10321000002DC0F29580216821F004012160002B6F
:103220003DD1002D40F08E806546082A0BD12368E1
:10323000DB0708D5236962689A42DEBF302305F8B0
:10324000013C05F1FF35ACEB05032361CDF80080AF
:103250003B4603AA21463046FFF7F6FE01304DD12A
:103260004FF0FF3005B0BDE8F083394884F84510D1
:10327000136821681D1D1B6815600A060BD5CA0757
:1032800044BF41F0200121601BB9226822F02002D6
:1032900022601022B7E74D0648BF9BB2EFE76546B4
:1032A000B3FBF2F102FB1133C35C05F8013D0B46A1
:1032B0000029F5D1B9E7136825686169181D106008
:1032C00028061B6801D5196002E06A06FBD5198043
:1032D000002323616546B9E71368191D11601D6855
:1032E000626800212846FDF7FBF808B1401B6060CA
:1032F00063682361002384F84330A7E723692A46E3
:1033000039463046C0470130AAD023689B0713D402
:10331000E068039B9842B8BF1846A3E701234A46DA
:1033200039463046C04701309AD00135E368039AE8
:103330009B1AAB42F2DCEBE7002504F11909F5E733
:10334000002BACD1037884F8423004F142056CE7DD
:10335000013F0008123F000810B5431E0A44914285
:1033600000D110BD11F8014B03F8014FF7E7884277
:1033700010B501EB020307D8421E99420AD011F89A
:10338000014B02F8014FF8E78342F5D98118D21AB0
:10339000D34200D110BD13F8014D01F8014DF7E7FC
:1033A00038B50546002945D051F8043C0C1F002BC8
:1033B000B8BFE41800F0D2F81F4A1368104633B9BA
:1033C000636014602846BDE8384000F0C8B8A342E6
:1033D0000CD921686218934204BF1A685B68636065
:1033E00004BF521822600460ECE713465A680AB121
:1033F000A242FAD919685818A0420BD1206801449A
:10340000581882421960DDD1106852685A60014430
:103410001960D7E702D90C232B60D3E72068211865
:103420008A4204BF11685268626004BF09182160B3
:103430005C60C7E738BD00BF9C02002070B5CD1CA2
:1034400025F0030508350C2D38BF0C25002D064648
:1034500001DBA94203D90C233360002070BD00F0CA
:103460007DF8214A1468214691B9204C23681BB984
:10347000304600F063F820602946304600F05EF8E0
:10348000431C24D10C233360304600F068F8E4E795
:103490000B685B1B18D40B2B0FD90B60CD50CC18CD
:1034A000304600F05CF804F10B00231D20F007000B
:1034B000C31AD3D05A42E250D0E78C424B6816BFB1
:1034C000636013600C46EBE70C464968CCE7C41C0C
:1034D00024F00304A04205D0211A304600F02EF853
:1034E0000130CFD02560DBE79C020020A002002045
:1034F000F8B5074614460E4621B91146BDE8F84016
:10350000FFF79CBF22B9FFF74BFF25462846F8BDC1
:1035100000F026F8A0420FD221463846FFF78EFF72
:1035200005460028F2D031462246FFF715FF314606
:103530003846FFF735FFE9E73546E7E738B5064C8B
:10354000002305460846236000F012F8431C02D110
:10355000236803B12B6038BD00030020704770471B
:1035600051F8043C181F002BBCBF0B58C018704703
:10357000044A05491368002B08BF0B461844106025
:1035800018467047A402002008030020F8B500BFC9
:10359000F8BC08BC9E467047F8B500BFF8BC08BC34
:0435A0009E4670478C
:1035A400002C0000010000000000000002000000E8
:1035B4000200000001000000000000000000000004
:1035C40000000000000000000000000000000000F7
:1035D40000000000000000000000000000000000E7
:1035E40000000000000000000000000000000000D7
:1035F40000000000000000000000000000000000C7
:1036040000000000070000000000000000000000AF
:1036140000000000000000000000000000000000A6
:103624000000000000000000000000000000000096
:103634000000000000000000000000000000000086
:103644000000000000000000000000000000000076
:103654000000000000000000000000000000000066
:103664000000000000000000000000000000000056
:103674000000000000000000000000000000000046
:103684000000000000000000000000000000000036
:103694000000000000000000000000000000000026
:1036A4000000000000000000000000000000000016
:1036B40000000000020000000000000002001700EB
:1036C40000000000020303000000000000000000EE
:1036D40000000000000000000000000000000000E6
:1036E40000000000000000000000000001030000D2
:1036F40000000000000000000000000000000000C6
:1037040000000000000000000000000000000000B5
:103714000000000002201000000000000300080860
:103724000000000002001000000000000000000083
:103734000000000004000E110E0000000400121F1F
:103744001000000004001A151200000004001517F0
:1037540009000000040004061F00000004001715FF
:103764000900000004001E151D0000000400011DD6
:103774000300000004001B151B00000004001715C3
:103784000F00000001140000000000000000000011
:103794000000000000000000000000000000000025
:1037A40000000000000000000000000003011502FA
:1037B4000000000000000000000000000000000005
:1037C40000000000000000000000000000000000F5
:1037D40000000000000000000000000000000000E5
:1037E40000000000000000000000000000000000D5
:103AD400000000000400081C1400000000000000A6
:103AE4000000000002001D000000000003011C0192
:103AF40000000000000000000000000000000000C2
:103B040000000000000000000000000000000000B1
:103B140000000000000000000000000004001C047D
:103B2400060000000000000000000000000000008B
:103B34000000000000000000000000000000000081
:103B44000000000000000000000000000000000071
:103B54000000000004000E15150000000000000025
:103B6400000000000400111F110000000400131ED7
:103B7400130000000000000000000000000000002E
:103B84000000000000000000000000000000000031
:103B940000000000000000000000000004001E02FD
:103BA400030000000000000000000000000000000E
:103BB4000000000005001C08141C00000400081488
:103BC4001C00000004000E150900000005000C1084
:103BD4001C300000040008543C00000004001C1CBD
:103BE40014000000060008147C14080003001C04E0
:103BF40000000000040014081400000004000C106D
:103C04001C000000040008121800000004001C0836
:103C140014000000040018041C00000006001C0826
:103C240010081C0004001C081C00000004001C14E4
:103C34001C00000004001C041C0000000400140C00
:103C44001C00000004007C140800000004001C1484
:103C5400140000000400041C0400000004000C50C4
:103C64003C000000060014081C08140004001E1583
:103C74000A00000003001C180000000000000000FF
:103C840000000000040054542800000006000C103A
:103C94001C101C00000000000000000007000C10B5
:103CA4001C101C3004000C081C0000000000000064
:103CB4000000000006001F041F111F0004001E0561
:103CC4001F00000004001F150900000005000F106C
:103CD4001F3000000600301E111F300004001F15A5
:103CE40015000000060002051F05020004001F0164
:103CF4000100000004001B041B00000005001F0C51
:103D0400061F000005001E09051E000004001F0612
:103D14001900000004001E011F00000006001F021D
:103D24000C021F0004001F041F00000004000E11F9
:103D34000E00000004001F011F00000004001A050B
:103D44001F00000004001F050200000004000E1103
:103D5400110000000400011F0100000004001714FA
:103D64001F00000006001B041F041B0004001F1595
:103D74001B00000004001F140800000000000000E5
:103D840000000000040015150A00000006000F10D2
:103D94001F101F00000000000000000007000F10AB
:103DA4001F101F30040003041F0000000000000067
:103DB40000000000005000000200000000000000AD
:103DC40002000000050000000000000000000000E8
:103DD40001020304060708090000000001020304AD
:103DE4002E2E2F447269766572732F53544D3332DD
:103DF400463478785F48414C5F4472697665722F27
:103E04005372632F73746D3332663478785F6861EC
:103E14006C5F636F727465782E6300002E2E2F44DE
:103E24007269766572732F53544D33324634787801
:103E34005F48414C5F4472697665722F5372632FF9
:103E440073746D3332663478785F68616C5F677061
:103E5400696F2E63000000002E2E2F447269766570
:103E640072732F53544D3332463478785F48414C43
:103E74005F4472697665722F5372632F73746D3366
:103E840032663478785F68616C5F6932632E6300F0
:103E94002E2E2F447269766572732F53544D33322C
:103EA400463478785F48414C5F4472697665722F76
:103EB4005372632F73746D3332663478785F68613C
:103EC4006C5F7263632E63002E2E2F5372632F690F
:103ED40032632E63000000002E2E2F5372632F6D69
:103EE40061696E2E6300000020256400232D302BB1
:103EF4002000686C4C0065666745464700303132E7
:103F0400333435363738394142434445460030313D
:103F1400323334353637383961626364656600009C
:083F2400ECC2FF7F0100000068
:043F2C00C5010008C3
:043F3000A1010008E3
:103F34000100000010000000778000000024F4005D
:103F44001400002000000000000000000000000039
:103F5400000000000000000000000000000000005D
:103F6400000000000000000000000000000000004D
:103F7400000000000000000000000000000000003D
:103F8400000000000000000000000000000000002D
:103F9400000000000000000000000000000000001D
:043FA4000000000019
:0400000508002CCDF6
:00000001FF
